{
  "contractName": "DummyImplementationV2",
  "abi": [
    {
      "constant": true,
      "inputs": [],
      "name": "text",
      "outputs": [
        {
          "name": "",
          "type": "string"
        }
      ],
      "payable": false,
      "stateMutability": "view",
      "type": "function"
    },
    {
      "constant": true,
      "inputs": [],
      "name": "reverts",
      "outputs": [],
      "payable": false,
      "stateMutability": "pure",
      "type": "function"
    },
    {
      "constant": true,
      "inputs": [],
      "name": "value",
      "outputs": [
        {
          "name": "",
          "type": "uint256"
        }
      ],
      "payable": false,
      "stateMutability": "view",
      "type": "function"
    },
    {
      "constant": true,
      "inputs": [
        {
          "name": "",
          "type": "uint256"
        }
      ],
      "name": "values",
      "outputs": [
        {
          "name": "",
          "type": "uint256"
        }
      ],
      "payable": false,
      "stateMutability": "view",
      "type": "function"
    },
    {
      "constant": true,
      "inputs": [],
      "name": "get",
      "outputs": [
        {
          "name": "",
          "type": "bool"
        }
      ],
      "payable": false,
      "stateMutability": "pure",
      "type": "function"
    },
    {
      "constant": false,
      "inputs": [
        {
          "name": "_value",
          "type": "uint256"
        },
        {
          "name": "_text",
          "type": "string"
        },
        {
          "name": "_values",
          "type": "uint256[]"
        }
      ],
      "name": "initialize",
      "outputs": [],
      "payable": false,
      "stateMutability": "nonpayable",
      "type": "function"
    },
    {
      "constant": false,
      "inputs": [
        {
          "name": "_value",
          "type": "uint256"
        }
      ],
      "name": "initialize",
      "outputs": [],
      "payable": false,
      "stateMutability": "nonpayable",
      "type": "function"
    },
    {
      "constant": false,
      "inputs": [
        {
          "name": "newVal",
          "type": "uint256"
        }
      ],
      "name": "migrate",
      "outputs": [],
      "payable": false,
      "stateMutability": "nonpayable",
      "type": "function"
    },
    {
      "constant": true,
      "inputs": [],
      "name": "version",
      "outputs": [
        {
          "name": "",
          "type": "string"
        }
      ],
      "payable": false,
      "stateMutability": "pure",
      "type": "function"
    }
  ],
  "bytecode": "0x608060405234801561001057600080fd5b50610608806100206000396000f300608060405260043610610099576000357c0100000000000000000000000000000000000000000000000000000000900463ffffffff1680631f1bd6921461009e5780633bccbbc91461012e5780633fa4f24514610145578063454b06081461017057806354fd4d501461019d5780635e383d211461022d5780636d4ce63c1461026e578063d31f8b6b1461029d578063fe4b84df14610353575b600080fd5b3480156100aa57600080fd5b506100b3610380565b6040518080602001828103825283818151815260200191508051906020019080838360005b838110156100f35780820151818401526020810190506100d8565b50505050905090810190601f1680156101205780820380516001836020036101000a031916815260200191505b509250505060405180910390f35b34801561013a57600080fd5b5061014361041e565b005b34801561015157600080fd5b5061015a61042d565b6040518082815260200191505060405180910390f35b34801561017c57600080fd5b5061019b60048036038101908080359060200190929190505050610433565b005b3480156101a957600080fd5b506101b261043d565b6040518080602001828103825283818151815260200191508051906020019080838360005b838110156101f25780820151818401526020810190506101d7565b50505050905090810190601f16801561021f5780820380516001836020036101000a031916815260200191505b509250505060405180910390f35b34801561023957600080fd5b506102586004803603810190808035906020019092919050505061047a565b6040518082815260200191505060405180910390f35b34801561027a57600080fd5b5061028361049d565b604051808215151515815260200191505060405180910390f35b3480156102a957600080fd5b5061035160048036038101908080359060200190929190803590602001908201803590602001908080601f0160208091040260200160405190810160405280939291908181526020018383808284378201915050505050509192919290803590602001908201803590602001908080602002602001604051908101604052809392919081815260200183836020028082843782019150505050505091929192905050506104a6565b005b34801561035f57600080fd5b5061037e600480360381019080803590602001909291905050506104e0565b005b60018054600181600116156101000203166002900480601f0160208091040260200160405190810160405280929190818152602001828054600181600116156101000203166002900480156104165780601f106103eb57610100808354040283529160200191610416565b820191906000526020600020905b8154815290600101906020018083116103f957829003601f168201915b505050505081565b6000151561042b57600080fd5b565b60005481565b8060008190555050565b60606040805190810160405280600281526020017f5632000000000000000000000000000000000000000000000000000000000000815250905090565b60028181548110151561048957fe5b906000526020600020016000915090505481565b60006001905090565b8260008190555081600190805190602001906104c39291906104ea565b5080600290805190602001906104da92919061056a565b50505050565b8060008190555050565b828054600181600116156101000203166002900490600052602060002090601f016020900481019282601f1061052b57805160ff1916838001178555610559565b82800160010185558215610559579182015b8281111561055857825182559160200191906001019061053d565b5b50905061056691906105b7565b5090565b8280548282559060005260206000209081019282156105a6579160200282015b828111156105a557825182559160200191906001019061058a565b5b5090506105b391906105b7565b5090565b6105d991905b808211156105d55760008160009055506001016105bd565b5090565b905600a165627a7a72305820cf206030b0880932b58b3045e5eb43929851961cf2c56d278680672d7df6520f0029",
  "source": "pragma solidity ^0.4.24;\n\ncontract Impl {\n  function version() public pure returns (string); \n}\n\ncontract DummyImplementation {\n  uint256 public value;\n  string public text;\n  uint256[] public values;\n\n  function initialize(uint256 _value) public {\n    value = _value;\n  }\n\n  function initialize(uint256 _value, string _text, uint256[] _values) public {\n    value = _value;\n    text = _text;\n    values = _values;\n  }\n\n  function get() public pure returns (bool) {\n    return true;\n  }\n\n  function version() public pure returns (string) {\n    return \"V1\";\n  }\n\n  function reverts() public pure {\n    require(false);\n  }\n}\n\ncontract DummyImplementationV2 is DummyImplementation {\n  function migrate(uint256 newVal) public {\n    value = newVal;\n  }\n\n  function version() public pure returns (string) {\n    return \"V2\";\n  }\n}\n",
  "sourcePath": "/home/spalladino/Projects/zeppelinos/zos/packages/lib/contracts/mocks/DummyImplementation.sol",
  "compiler": {
    "name": "solc",
    "version": "0.4.24+commit.e67f0147.Emscripten.clang"
  },
  "schemaVersion": "2.0.1",
  "updatedAt": "2018-08-22T20:08:12.405Z"
}