{
  "contractName": "DummyImplementation",
  "abi": [
    {
      "constant": true,
      "inputs": [],
      "name": "text",
      "outputs": [
        {
          "name": "",
          "type": "string"
        }
      ],
      "payable": false,
      "stateMutability": "view",
      "type": "function"
    },
    {
      "constant": true,
      "inputs": [],
      "name": "value",
      "outputs": [
        {
          "name": "",
          "type": "uint256"
        }
      ],
      "payable": false,
      "stateMutability": "view",
      "type": "function"
    },
    {
      "constant": true,
      "inputs": [
        {
          "name": "",
          "type": "uint256"
        }
      ],
      "name": "values",
      "outputs": [
        {
          "name": "",
          "type": "uint256"
        }
      ],
      "payable": false,
      "stateMutability": "view",
      "type": "function"
    },
    {
      "constant": false,
      "inputs": [
        {
          "name": "_value",
          "type": "uint256"
        },
        {
          "name": "_text",
          "type": "string"
        },
        {
          "name": "_values",
          "type": "uint256[]"
        }
      ],
      "name": "initialize",
      "outputs": [],
      "payable": false,
      "stateMutability": "nonpayable",
      "type": "function"
    },
    {
      "constant": false,
      "inputs": [
        {
          "name": "_value",
          "type": "uint256"
        }
      ],
      "name": "initialize",
      "outputs": [],
      "payable": false,
      "stateMutability": "nonpayable",
      "type": "function"
    },
    {
      "constant": true,
      "inputs": [],
      "name": "get",
      "outputs": [
        {
          "name": "",
          "type": "bool"
        }
      ],
      "payable": false,
      "stateMutability": "pure",
      "type": "function"
    },
    {
      "constant": true,
      "inputs": [],
      "name": "version",
      "outputs": [
        {
          "name": "",
          "type": "string"
        }
      ],
      "payable": false,
      "stateMutability": "pure",
      "type": "function"
    },
    {
      "constant": true,
      "inputs": [],
      "name": "reverts",
      "outputs": [],
      "payable": false,
      "stateMutability": "pure",
      "type": "function"
    }
  ],
  "bytecode": "0x608060405234801561001057600080fd5b506105c6806100206000396000f30060806040526004361061008e576000357c0100000000000000000000000000000000000000000000000000000000900463ffffffff1680631f1bd692146100935780633bccbbc9146101235780633fa4f2451461013a57806354fd4d50146101655780635e383d21146101f55780636d4ce63c14610236578063d31f8b6b14610265578063fe4b84df1461031b575b600080fd5b34801561009f57600080fd5b506100a8610348565b6040518080602001828103825283818151815260200191508051906020019080838360005b838110156100e85780820151818401526020810190506100cd565b50505050905090810190601f1680156101155780820380516001836020036101000a031916815260200191505b509250505060405180910390f35b34801561012f57600080fd5b506101386103e6565b005b34801561014657600080fd5b5061014f6103f5565b6040518082815260200191505060405180910390f35b34801561017157600080fd5b5061017a6103fb565b6040518080602001828103825283818151815260200191508051906020019080838360005b838110156101ba57808201518184015260208101905061019f565b50505050905090810190601f1680156101e75780820380516001836020036101000a031916815260200191505b509250505060405180910390f35b34801561020157600080fd5b5061022060048036038101908080359060200190929190505050610438565b6040518082815260200191505060405180910390f35b34801561024257600080fd5b5061024b61045b565b604051808215151515815260200191505060405180910390f35b34801561027157600080fd5b5061031960048036038101908080359060200190929190803590602001908201803590602001908080601f016020809104026020016040519081016040528093929190818152602001838380828437820191505050505050919291929080359060200190820180359060200190808060200260200160405190810160405280939291908181526020018383602002808284378201915050505050509192919290505050610464565b005b34801561032757600080fd5b506103466004803603810190808035906020019092919050505061049e565b005b60018054600181600116156101000203166002900480601f0160208091040260200160405190810160405280929190818152602001828054600181600116156101000203166002900480156103de5780601f106103b3576101008083540402835291602001916103de565b820191906000526020600020905b8154815290600101906020018083116103c157829003601f168201915b505050505081565b600015156103f357600080fd5b565b60005481565b60606040805190810160405280600281526020017f5631000000000000000000000000000000000000000000000000000000000000815250905090565b60028181548110151561044757fe5b906000526020600020016000915090505481565b60006001905090565b8260008190555081600190805190602001906104819291906104a8565b508060029080519060200190610498929190610528565b50505050565b8060008190555050565b828054600181600116156101000203166002900490600052602060002090601f016020900481019282601f106104e957805160ff1916838001178555610517565b82800160010185558215610517579182015b828111156105165782518255916020019190600101906104fb565b5b5090506105249190610575565b5090565b828054828255906000526020600020908101928215610564579160200282015b82811115610563578251825591602001919060010190610548565b5b5090506105719190610575565b5090565b61059791905b8082111561059357600081600090555060010161057b565b5090565b905600a165627a7a723058206b2a159988b7fd7f10896952ff7f879f7b5a9875aa659f30592719925e3510300029",
  "source": "pragma solidity ^0.4.24;\n\ncontract Impl {\n  function version() public pure returns (string); \n}\n\ncontract DummyImplementation {\n  uint256 public value;\n  string public text;\n  uint256[] public values;\n\n  function initialize(uint256 _value) public {\n    value = _value;\n  }\n\n  function initialize(uint256 _value, string _text, uint256[] _values) public {\n    value = _value;\n    text = _text;\n    values = _values;\n  }\n\n  function get() public pure returns (bool) {\n    return true;\n  }\n\n  function version() public pure returns (string) {\n    return \"V1\";\n  }\n\n  function reverts() public pure {\n    require(false);\n  }\n}\n\ncontract DummyImplementationV2 is DummyImplementation {\n  function migrate(uint256 newVal) public {\n    value = newVal;\n  }\n\n  function version() public pure returns (string) {\n    return \"V2\";\n  }\n}\n",
  "sourcePath": "/home/spalladino/Projects/zeppelinos/zos/packages/lib/contracts/mocks/DummyImplementation.sol",
  "compiler": {
    "name": "solc",
    "version": "0.4.24+commit.e67f0147.Emscripten.clang"
  },
  "schemaVersion": "2.0.1",
  "updatedAt": "2018-08-22T20:08:12.401Z"
}