{
  "contractName": "Implementation2",
  "abi": [
    {
      "constant": true,
      "inputs": [],
      "name": "initialized",
      "outputs": [
        {
          "name": "",
          "type": "bool"
        }
      ],
      "payable": false,
      "stateMutability": "view",
      "type": "function"
    },
    {
      "constant": false,
      "inputs": [],
      "name": "initialize",
      "outputs": [],
      "payable": false,
      "stateMutability": "nonpayable",
      "type": "function"
    },
    {
      "constant": false,
      "inputs": [
        {
          "name": "_number",
          "type": "uint256"
        }
      ],
      "name": "setValue",
      "outputs": [],
      "payable": false,
      "stateMutability": "nonpayable",
      "type": "function"
    },
    {
      "constant": true,
      "inputs": [],
      "name": "getValue",
      "outputs": [
        {
          "name": "",
          "type": "uint256"
        }
      ],
      "payable": false,
      "stateMutability": "view",
      "type": "function"
    }
  ],
  "bytecode": "0x608060405234801561001057600080fd5b5061021d806100206000396000f300608060405260043610610062576000357c0100000000000000000000000000000000000000000000000000000000900463ffffffff168063158ef93e14610067578063209652551461009657806355241077146100c15780638129fc1c146100ee575b600080fd5b34801561007357600080fd5b5061007c610105565b604051808215151515815260200191505060405180910390f35b3480156100a257600080fd5b506100ab610117565b6040518082815260200191505060405180910390f35b3480156100cd57600080fd5b506100ec60048036038101908080359060200190929190505050610121565b005b3480156100fa57600080fd5b5061010361012b565b005b6000809054906101000a900460ff1681565b6000600154905090565b8060018190555050565b6000809054906101000a900460ff161515156101d5576040517f08c379a000000000000000000000000000000000000000000000000000000000815260040180806020018281038252602e8152602001807f436f6e747261637420696e7374616e63652068617320616c726561647920626581526020017f656e20696e697469616c697a656400000000000000000000000000000000000081525060400191505060405180910390fd5b60016000806101000a81548160ff0219169083151502179055505600a165627a7a7230582047df78950b01089d8ff47debfc107fd25c6d017c6210baf734ae88c522e790100029",
  "source": "pragma solidity ^0.4.24;\n\nimport \"../migrations/Initializable.sol\";\n\ncontract Implementation1 is Initializable {\n  uint value;\n\n  function initialize() isInitializer() public {\n  }\n\n  function setValue(uint _number) public {\n    value = _number;\n  }\n}\n\ncontract Implementation2 is Initializable {\n  uint value;\n\n  function initialize() isInitializer() public {\n  }\n\n  function setValue(uint _number) public {\n    value = _number;\n  }\n\n  function getValue() public view returns (uint) {\n    return value;\n  }\n}\n\ncontract Implementation3 is Initializable {\n  uint value;\n\n  function initialize() isInitializer() public {\n  }\n\n  function setValue(uint _number) public {\n    value = _number;\n  }\n\n  function getValue(uint _number) public view returns (uint) {\n    return value + _number;\n  }\n}\n\ncontract Implementation4 is Initializable {\n  uint value;\n\n  function initialize() isInitializer() public {\n  }\n\n  function setValue(uint _number) public {\n    value = _number;\n  }\n\n  function getValue() public view returns (uint) {\n    return value;\n  }\n\n  function() public {\n    value = 1;\n  }\n}\n",
  "sourcePath": "/home/spalladino/Projects/zeppelinos/zos/packages/lib/contracts/mocks/RegressionImplementation.sol",
  "compiler": {
    "name": "solc",
    "version": "0.4.24+commit.e67f0147.Emscripten.clang"
  },
  "schemaVersion": "2.0.1",
  "updatedAt": "2018-08-03T22:04:34.902Z"
}