{
  "contractName": "InitializableMock",
  "abi": [
    {
      "constant": true,
      "inputs": [],
      "name": "initialized",
      "outputs": [
        {
          "name": "",
          "type": "bool"
        }
      ],
      "payable": false,
      "stateMutability": "view",
      "type": "function"
    },
    {
      "constant": false,
      "inputs": [],
      "name": "initialize",
      "outputs": [],
      "payable": false,
      "stateMutability": "nonpayable",
      "type": "function"
    }
  ],
  "bytecode": "0x608060405234801561001057600080fd5b5061019b806100206000396000f30060806040526004361061004c576000357c0100000000000000000000000000000000000000000000000000000000900463ffffffff168063158ef93e146100515780638129fc1c14610080575b600080fd5b34801561005d57600080fd5b50610066610097565b604051808215151515815260200191505060405180910390f35b34801561008c57600080fd5b506100956100a9565b005b6000809054906101000a900460ff1681565b6000809054906101000a900460ff16151515610153576040517f08c379a000000000000000000000000000000000000000000000000000000000815260040180806020018281038252602e8152602001807f436f6e747261637420696e7374616e63652068617320616c726561647920626581526020017f656e20696e697469616c697a656400000000000000000000000000000000000081525060400191505060405180910390fd5b60016000806101000a81548160ff0219169083151502179055505600a165627a7a72305820169fa01c9fae44e0ca54236a7b42fb223e306b0c4649dccbc5297d43e40beacb0029",
  "source": "pragma solidity ^0.4.24;\n\nimport \"../migrations/Initializable.sol\";\n\n/**\n * @title InitializableMock\n * @dev This contract is a mock to test initializable functionality\n */\ncontract InitializableMock is Initializable {\n\n  function initialize() public isInitializer {}\n\n}\n",
  "sourcePath": "/home/spalladino/Projects/zeppelinos/zos/packages/lib/contracts/mocks/InitializableMock.sol",
  "compiler": {
    "name": "solc",
    "version": "0.4.24+commit.e67f0147.Emscripten.clang"
  },
  "schemaVersion": "2.0.1",
  "updatedAt": "2018-08-03T22:04:34.874Z"
}