{
  "contractName": "MigratableMockV2",
  "abi": [
    {
      "constant": true,
      "inputs": [],
      "name": "x",
      "outputs": [
        {
          "name": "",
          "type": "uint256"
        }
      ],
      "payable": false,
      "stateMutability": "view",
      "type": "function"
    },
    {
      "constant": false,
      "inputs": [],
      "name": "initialize",
      "outputs": [],
      "payable": false,
      "stateMutability": "nonpayable",
      "type": "function"
    },
    {
      "constant": true,
      "inputs": [],
      "name": "y",
      "outputs": [
        {
          "name": "",
          "type": "uint256"
        }
      ],
      "payable": false,
      "stateMutability": "view",
      "type": "function"
    },
    {
      "constant": true,
      "inputs": [
        {
          "name": "contractName",
          "type": "string"
        },
        {
          "name": "migrationId",
          "type": "string"
        }
      ],
      "name": "isMigrated",
      "outputs": [
        {
          "name": "",
          "type": "bool"
        }
      ],
      "payable": false,
      "stateMutability": "view",
      "type": "function"
    },
    {
      "constant": false,
      "inputs": [
        {
          "name": "value",
          "type": "uint256"
        }
      ],
      "name": "initialize",
      "outputs": [],
      "payable": true,
      "stateMutability": "payable",
      "type": "function"
    },
    {
      "anonymous": false,
      "inputs": [
        {
          "indexed": false,
          "name": "contractName",
          "type": "string"
        },
        {
          "indexed": false,
          "name": "migrationId",
          "type": "string"
        }
      ],
      "name": "Migrated",
      "type": "event"
    },
    {
      "constant": false,
      "inputs": [
        {
          "name": "value",
          "type": "uint256"
        },
        {
          "name": "anotherValue",
          "type": "uint256"
        }
      ],
      "name": "migrate",
      "outputs": [],
      "payable": true,
      "stateMutability": "payable",
      "type": "function"
    }
  ],
  "bytecode": "0x608060405234801561001057600080fd5b50610ecc806100206000396000f300608060405260043610610078576000357c0100000000000000000000000000000000000000000000000000000000900463ffffffff1680630c55699c1461007d5780633e54bacb146100a85780638129fc1c146100d2578063a56dfe4a146100e9578063c0bac1a814610114578063fe4b84df146101db575b600080fd5b34801561008957600080fd5b506100926101fb565b6040518082815260200191505060405180910390f35b6100d06004803603810190808035906020019092919080359060200190929190505050610201565b005b3480156100de57600080fd5b506100e761055c565b005b3480156100f557600080fd5b506100fe61092d565b6040518082815260200191505060405180910390f35b34801561012057600080fd5b506101c1600480360381019080803590602001908201803590602001908080601f0160208091040260200160405190810160405280939291908181526020018383808284378201915050505050509192919290803590602001908201803590602001908080601f0160208091040260200160405190810160405280939291908181526020018383808284378201915050505050509192919290505050610933565b604051808215151515815260200191505060405180910390f35b6101f960048036038101908080359060200190929190505050610a1e565b005b60015481565b6040805190810160405280600e81526020017f4d696772617461626c654d6f636b0000000000000000000000000000000000008152506040805190810160405280600b81526020017f6d6967726174696f6e5f310000000000000000000000000000000000000000008152506040805190810160405280600b81526020017f6d6967726174696f6e5f320000000000000000000000000000000000000000008152506102ad8383610933565b1515610347576040517f08c379a000000000000000000000000000000000000000000000000000000000815260040180806020018281038252602e8152602001807f507265726571756973697465206d6967726174696f6e20494420686173206e6f81526020017f74206265656e2072756e2079657400000000000000000000000000000000000081525060400191505060405180910390fd5b6103518382610df7565b84600181905550836002819055507fdd117a11c22118c9dee4b5a67ce578bc44529dce21ee0ccc439588fbb9fb4ea38382604051808060200180602001838103835285818151815260200191508051906020019080838360005b838110156103c65780820151818401526020810190506103ab565b50505050905090810190601f1680156103f35780820380516001836020036101000a031916815260200191505b50838103825284818151815260200191508051906020019080838360005b8381101561042c578082015181840152602081019050610411565b50505050905090810190601f1680156104595780820380516001836020036101000a031916815260200191505b5094505050505060405180910390a160016000846040518082805190602001908083835b6020831015156104a2578051825260208201915060208101905060208303925061047d565b6001836020036101000a0380198251168184511680821785525050505050509050019150509081526020016040518091039020826040518082805190602001908083835b60208310151561050b57805182526020820191506020810190506020830392506104e6565b6001836020036101000a038019825116818451168082178552505050505050905001915050908152602001604051809103902060006101000a81548160ff0219169083151502179055505050505050565b6040805190810160405280600a81526020017f4d696772617461626c65000000000000000000000000000000000000000000008152506040805190810160405280600581526020017f312e322e31000000000000000000000000000000000000000000000000000000815250610607826040805190810160405280600b81526020017f696e697469616c697a6564000000000000000000000000000000000000000000815250610df7565b6106118282610df7565b7fdd117a11c22118c9dee4b5a67ce578bc44529dce21ee0ccc439588fbb9fb4ea38282604051808060200180602001838103835285818151815260200191508051906020019080838360005b8381101561067857808201518184015260208101905061065d565b50505050905090810190601f1680156106a55780820380516001836020036101000a031916815260200191505b50838103825284818151815260200191508051906020019080838360005b838110156106de5780820151818401526020810190506106c3565b50505050905090810190601f16801561070b5780820380516001836020036101000a031916815260200191505b5094505050505060405180910390a160016000836040518082805190602001908083835b602083101515610754578051825260208201915060208101905060208303925061072f565b6001836020036101000a0380198251168184511680821785525050505050509050019150509081526020016040518091039020826040518082805190602001908083835b6020831015156107bd5780518252602082019150602081019050602083039250610798565b6001836020036101000a038019825116818451168082178552505050505050905001915050908152602001604051809103902060006101000a81548160ff02191690831515021790555060016000836040518082805190602001908083835b602083101515610841578051825260208201915060208101905060208303925061081c565b6001836020036101000a03801982511681845116808217855250505050505090500191505090815260200160405180910390206040805190810160405280600b81526020017f696e697469616c697a65640000000000000000000000000000000000000000008152506040518082805190602001908083835b6020831015156108df57805182526020820191506020810190506020830392506108ba565b6001836020036101000a038019825116818451168082178552505050505050905001915050908152602001604051809103902060006101000a81548160ff0219169083151502179055505050565b60025481565b600080836040518082805190602001908083835b60208310151561096c5780518252602082019150602081019050602083039250610947565b6001836020036101000a0380198251168184511680821785525050505050509050019150509081526020016040518091039020826040518082805190602001908083835b6020831015156109d557805182526020820191506020810190506020830392506109b0565b6001836020036101000a038019825116818451168082178552505050505050905001915050908152602001604051809103902060009054906101000a900460ff16905092915050565b6040805190810160405280600e81526020017f4d696772617461626c654d6f636b0000000000000000000000000000000000008152506040805190810160405280600b81526020017f6d6967726174696f6e5f31000000000000000000000000000000000000000000815250610ac9826040805190810160405280600b81526020017f696e697469616c697a6564000000000000000000000000000000000000000000815250610df7565b610ad38282610df7565b826001819055507fdd117a11c22118c9dee4b5a67ce578bc44529dce21ee0ccc439588fbb9fb4ea38282604051808060200180602001838103835285818151815260200191508051906020019080838360005b83811015610b41578082015181840152602081019050610b26565b50505050905090810190601f168015610b6e5780820380516001836020036101000a031916815260200191505b50838103825284818151815260200191508051906020019080838360005b83811015610ba7578082015181840152602081019050610b8c565b50505050905090810190601f168015610bd45780820380516001836020036101000a031916815260200191505b5094505050505060405180910390a160016000836040518082805190602001908083835b602083101515610c1d5780518252602082019150602081019050602083039250610bf8565b6001836020036101000a0380198251168184511680821785525050505050509050019150509081526020016040518091039020826040518082805190602001908083835b602083101515610c865780518252602082019150602081019050602083039250610c61565b6001836020036101000a038019825116818451168082178552505050505050905001915050908152602001604051809103902060006101000a81548160ff02191690831515021790555060016000836040518082805190602001908083835b602083101515610d0a5780518252602082019150602081019050602083039250610ce5565b6001836020036101000a03801982511681845116808217855250505050505090500191505090815260200160405180910390206040805190810160405280600b81526020017f696e697469616c697a65640000000000000000000000000000000000000000008152506040518082805190602001908083835b602083101515610da85780518252602082019150602081019050602083039250610d83565b6001836020036101000a038019825116818451168082178552505050505050905001915050908152602001604051809103902060006101000a81548160ff021916908315150217905550505050565b610e018282610933565b151515610e9c576040517f08c379a00000000000000000000000000000000000000000000000000000000081526004018080602001828103825260328152602001807f52657175657374656420746172676574206d6967726174696f6e20494420686181526020017f7320616c7265616479206265656e2072756e000000000000000000000000000081525060400191505060405180910390fd5b50505600a165627a7a7230582009379c5d394feb9ad3ee6d2aa1ad62423be57577a023741a6261079cf044ba2f0029",
  "source": "pragma solidity ^0.4.24;\n\nimport '../migrations/Migratable.sol';\n\n/**\n * @title MigratableMockV1\n * @dev This contract is a mock to test initializable functionality through migrations\n */\ncontract MigratableMockV1 is Migratable {\n  uint256 public x;\n\n  function initialize(uint256 value) isInitializer(\"MigratableMock\", \"migration_1\") public payable {\n    x = value;\n  }\n}\n\n/**\n * @title MigratableMockV2\n * @dev This contract is a mock to test migratable functionality with params\n */\ncontract MigratableMockV2 is MigratableMockV1 {\n  uint256 public y;\n\n  function migrate(uint256 value, uint256 anotherValue) isMigration(\"MigratableMock\", \"migration_1\", \"migration_2\") public payable {\n    x = value;\n    y = anotherValue;\n  }\n}\n\n/**\n * @title MigratableMockV3\n * @dev This contract is a mock to test migratable functionality without params\n */\ncontract MigratableMockV3 is MigratableMockV2 {\n  function migrate() isMigration(\"MigratableMock\", \"migration_2\", \"migration_3\") public payable {\n    uint256 oldX = x;\n    x = y;\n    y = oldX;\n  }\n}\n",
  "sourcePath": "/home/spalladino/Projects/zeppelinos/zos/packages/lib/contracts/mocks/SingleInheritanceMigratableMocks.sol",
  "compiler": {
    "name": "solc",
    "version": "0.4.24+commit.e67f0147.Emscripten.clang"
  },
  "schemaVersion": "2.0.1",
  "updatedAt": "2018-08-03T22:08:41.311Z"
}