{
  "contractName": "MigratableMockV3",
  "abi": [
    {
      "constant": true,
      "inputs": [],
      "name": "x",
      "outputs": [
        {
          "name": "",
          "type": "uint256"
        }
      ],
      "payable": false,
      "stateMutability": "view",
      "type": "function"
    },
    {
      "constant": false,
      "inputs": [],
      "name": "initialize",
      "outputs": [],
      "payable": false,
      "stateMutability": "nonpayable",
      "type": "function"
    },
    {
      "constant": true,
      "inputs": [],
      "name": "y",
      "outputs": [
        {
          "name": "",
          "type": "uint256"
        }
      ],
      "payable": false,
      "stateMutability": "view",
      "type": "function"
    },
    {
      "constant": true,
      "inputs": [
        {
          "name": "contractName",
          "type": "string"
        },
        {
          "name": "migrationId",
          "type": "string"
        }
      ],
      "name": "isMigrated",
      "outputs": [
        {
          "name": "",
          "type": "bool"
        }
      ],
      "payable": false,
      "stateMutability": "view",
      "type": "function"
    },
    {
      "constant": false,
      "inputs": [
        {
          "name": "value",
          "type": "uint256"
        }
      ],
      "name": "initialize",
      "outputs": [],
      "payable": true,
      "stateMutability": "payable",
      "type": "function"
    },
    {
      "anonymous": false,
      "inputs": [
        {
          "indexed": false,
          "name": "contractName",
          "type": "string"
        },
        {
          "indexed": false,
          "name": "migrationId",
          "type": "string"
        }
      ],
      "name": "Migrated",
      "type": "event"
    },
    {
      "constant": false,
      "inputs": [
        {
          "name": "value",
          "type": "uint256"
        },
        {
          "name": "anotherValue",
          "type": "uint256"
        }
      ],
      "name": "migrate",
      "outputs": [],
      "payable": true,
      "stateMutability": "payable",
      "type": "function"
    },
    {
      "constant": false,
      "inputs": [],
      "name": "migrate",
      "outputs": [],
      "payable": true,
      "stateMutability": "payable",
      "type": "function"
    }
  ],
  "bytecode": "0x608060405234801561001057600080fd5b50611244806100206000396000f300608060405260043610610083576000357c0100000000000000000000000000000000000000000000000000000000900463ffffffff1680630c55699c146100885780633e54bacb146100b35780638129fc1c146100dd5780638fd3ab80146100f4578063a56dfe4a146100fe578063c0bac1a814610129578063fe4b84df146101f0575b600080fd5b34801561009457600080fd5b5061009d610210565b6040518082815260200191505060405180910390f35b6100db6004803603810190808035906020019092919080359060200190929190505050610216565b005b3480156100e957600080fd5b506100f2610571565b005b6100fc610942565b005b34801561010a57600080fd5b50610113610ca5565b6040518082815260200191505060405180910390f35b34801561013557600080fd5b506101d6600480360381019080803590602001908201803590602001908080601f0160208091040260200160405190810160405280939291908181526020018383808284378201915050505050509192919290803590602001908201803590602001908080601f0160208091040260200160405190810160405280939291908181526020018383808284378201915050505050509192919290505050610cab565b604051808215151515815260200191505060405180910390f35b61020e60048036038101908080359060200190929190505050610d96565b005b60015481565b6040805190810160405280600e81526020017f4d696772617461626c654d6f636b0000000000000000000000000000000000008152506040805190810160405280600b81526020017f6d6967726174696f6e5f310000000000000000000000000000000000000000008152506040805190810160405280600b81526020017f6d6967726174696f6e5f320000000000000000000000000000000000000000008152506102c28383610cab565b151561035c576040517f08c379a000000000000000000000000000000000000000000000000000000000815260040180806020018281038252602e8152602001807f507265726571756973697465206d6967726174696f6e20494420686173206e6f81526020017f74206265656e2072756e2079657400000000000000000000000000000000000081525060400191505060405180910390fd5b610366838261116f565b84600181905550836002819055507fdd117a11c22118c9dee4b5a67ce578bc44529dce21ee0ccc439588fbb9fb4ea38382604051808060200180602001838103835285818151815260200191508051906020019080838360005b838110156103db5780820151818401526020810190506103c0565b50505050905090810190601f1680156104085780820380516001836020036101000a031916815260200191505b50838103825284818151815260200191508051906020019080838360005b83811015610441578082015181840152602081019050610426565b50505050905090810190601f16801561046e5780820380516001836020036101000a031916815260200191505b5094505050505060405180910390a160016000846040518082805190602001908083835b6020831015156104b75780518252602082019150602081019050602083039250610492565b6001836020036101000a0380198251168184511680821785525050505050509050019150509081526020016040518091039020826040518082805190602001908083835b60208310151561052057805182526020820191506020810190506020830392506104fb565b6001836020036101000a038019825116818451168082178552505050505050905001915050908152602001604051809103902060006101000a81548160ff0219169083151502179055505050505050565b6040805190810160405280600a81526020017f4d696772617461626c65000000000000000000000000000000000000000000008152506040805190810160405280600581526020017f312e322e3100000000000000000000000000000000000000000000000000000081525061061c826040805190810160405280600b81526020017f696e697469616c697a656400000000000000000000000000000000000000000081525061116f565b610626828261116f565b7fdd117a11c22118c9dee4b5a67ce578bc44529dce21ee0ccc439588fbb9fb4ea38282604051808060200180602001838103835285818151815260200191508051906020019080838360005b8381101561068d578082015181840152602081019050610672565b50505050905090810190601f1680156106ba5780820380516001836020036101000a031916815260200191505b50838103825284818151815260200191508051906020019080838360005b838110156106f35780820151818401526020810190506106d8565b50505050905090810190601f1680156107205780820380516001836020036101000a031916815260200191505b5094505050505060405180910390a160016000836040518082805190602001908083835b6020831015156107695780518252602082019150602081019050602083039250610744565b6001836020036101000a0380198251168184511680821785525050505050509050019150509081526020016040518091039020826040518082805190602001908083835b6020831015156107d257805182526020820191506020810190506020830392506107ad565b6001836020036101000a038019825116818451168082178552505050505050905001915050908152602001604051809103902060006101000a81548160ff02191690831515021790555060016000836040518082805190602001908083835b6020831015156108565780518252602082019150602081019050602083039250610831565b6001836020036101000a03801982511681845116808217855250505050505090500191505090815260200160405180910390206040805190810160405280600b81526020017f696e697469616c697a65640000000000000000000000000000000000000000008152506040518082805190602001908083835b6020831015156108f457805182526020820191506020810190506020830392506108cf565b6001836020036101000a038019825116818451168082178552505050505050905001915050908152602001604051809103902060006101000a81548160ff0219169083151502179055505050565b60006040805190810160405280600e81526020017f4d696772617461626c654d6f636b0000000000000000000000000000000000008152506040805190810160405280600b81526020017f6d6967726174696f6e5f320000000000000000000000000000000000000000008152506040805190810160405280600b81526020017f6d6967726174696f6e5f330000000000000000000000000000000000000000008152506109f08383610cab565b1515610a8a576040517f08c379a000000000000000000000000000000000000000000000000000000000815260040180806020018281038252602e8152602001807f507265726571756973697465206d6967726174696f6e20494420686173206e6f81526020017f74206265656e2072756e2079657400000000000000000000000000000000000081525060400191505060405180910390fd5b610a94838261116f565b6001549350600254600181905550836002819055507fdd117a11c22118c9dee4b5a67ce578bc44529dce21ee0ccc439588fbb9fb4ea38382604051808060200180602001838103835285818151815260200191508051906020019080838360005b83811015610b10578082015181840152602081019050610af5565b50505050905090810190601f168015610b3d5780820380516001836020036101000a031916815260200191505b50838103825284818151815260200191508051906020019080838360005b83811015610b76578082015181840152602081019050610b5b565b50505050905090810190601f168015610ba35780820380516001836020036101000a031916815260200191505b5094505050505060405180910390a160016000846040518082805190602001908083835b602083101515610bec5780518252602082019150602081019050602083039250610bc7565b6001836020036101000a0380198251168184511680821785525050505050509050019150509081526020016040518091039020826040518082805190602001908083835b602083101515610c555780518252602082019150602081019050602083039250610c30565b6001836020036101000a038019825116818451168082178552505050505050905001915050908152602001604051809103902060006101000a81548160ff02191690831515021790555050505050565b60025481565b600080836040518082805190602001908083835b602083101515610ce45780518252602082019150602081019050602083039250610cbf565b6001836020036101000a0380198251168184511680821785525050505050509050019150509081526020016040518091039020826040518082805190602001908083835b602083101515610d4d5780518252602082019150602081019050602083039250610d28565b6001836020036101000a038019825116818451168082178552505050505050905001915050908152602001604051809103902060009054906101000a900460ff16905092915050565b6040805190810160405280600e81526020017f4d696772617461626c654d6f636b0000000000000000000000000000000000008152506040805190810160405280600b81526020017f6d6967726174696f6e5f31000000000000000000000000000000000000000000815250610e41826040805190810160405280600b81526020017f696e697469616c697a656400000000000000000000000000000000000000000081525061116f565b610e4b828261116f565b826001819055507fdd117a11c22118c9dee4b5a67ce578bc44529dce21ee0ccc439588fbb9fb4ea38282604051808060200180602001838103835285818151815260200191508051906020019080838360005b83811015610eb9578082015181840152602081019050610e9e565b50505050905090810190601f168015610ee65780820380516001836020036101000a031916815260200191505b50838103825284818151815260200191508051906020019080838360005b83811015610f1f578082015181840152602081019050610f04565b50505050905090810190601f168015610f4c5780820380516001836020036101000a031916815260200191505b5094505050505060405180910390a160016000836040518082805190602001908083835b602083101515610f955780518252602082019150602081019050602083039250610f70565b6001836020036101000a0380198251168184511680821785525050505050509050019150509081526020016040518091039020826040518082805190602001908083835b602083101515610ffe5780518252602082019150602081019050602083039250610fd9565b6001836020036101000a038019825116818451168082178552505050505050905001915050908152602001604051809103902060006101000a81548160ff02191690831515021790555060016000836040518082805190602001908083835b602083101515611082578051825260208201915060208101905060208303925061105d565b6001836020036101000a03801982511681845116808217855250505050505090500191505090815260200160405180910390206040805190810160405280600b81526020017f696e697469616c697a65640000000000000000000000000000000000000000008152506040518082805190602001908083835b60208310151561112057805182526020820191506020810190506020830392506110fb565b6001836020036101000a038019825116818451168082178552505050505050905001915050908152602001604051809103902060006101000a81548160ff021916908315150217905550505050565b6111798282610cab565b151515611214576040517f08c379a00000000000000000000000000000000000000000000000000000000081526004018080602001828103825260328152602001807f52657175657374656420746172676574206d6967726174696f6e20494420686181526020017f7320616c7265616479206265656e2072756e000000000000000000000000000081525060400191505060405180910390fd5b50505600a165627a7a72305820c994fcd940ca408233ac1751e35e80400f6636b8d3016c8a195ce0d5e8297a2a0029",
  "source": "pragma solidity ^0.4.24;\n\nimport '../migrations/Migratable.sol';\n\n/**\n * @title MigratableMockV1\n * @dev This contract is a mock to test initializable functionality through migrations\n */\ncontract MigratableMockV1 is Migratable {\n  uint256 public x;\n\n  function initialize(uint256 value) isInitializer(\"MigratableMock\", \"migration_1\") public payable {\n    x = value;\n  }\n}\n\n/**\n * @title MigratableMockV2\n * @dev This contract is a mock to test migratable functionality with params\n */\ncontract MigratableMockV2 is MigratableMockV1 {\n  uint256 public y;\n\n  function migrate(uint256 value, uint256 anotherValue) isMigration(\"MigratableMock\", \"migration_1\", \"migration_2\") public payable {\n    x = value;\n    y = anotherValue;\n  }\n}\n\n/**\n * @title MigratableMockV3\n * @dev This contract is a mock to test migratable functionality without params\n */\ncontract MigratableMockV3 is MigratableMockV2 {\n  function migrate() isMigration(\"MigratableMock\", \"migration_2\", \"migration_3\") public payable {\n    uint256 oldX = x;\n    x = y;\n    y = oldX;\n  }\n}\n",
  "sourcePath": "/home/spalladino/Projects/zeppelinos/zos/packages/lib/contracts/mocks/SingleInheritanceMigratableMocks.sol",
  "compiler": {
    "name": "solc",
    "version": "0.4.24+commit.e67f0147.Emscripten.clang"
  },
  "schemaVersion": "2.0.1",
  "updatedAt": "2018-08-03T22:08:41.320Z"
}