{
  "contractName": "MigratableMock",
  "abi": [
    {
      "constant": true,
      "inputs": [],
      "name": "x",
      "outputs": [
        {
          "name": "",
          "type": "uint256"
        }
      ],
      "payable": false,
      "stateMutability": "view",
      "type": "function"
    },
    {
      "constant": true,
      "inputs": [
        {
          "name": "contractName",
          "type": "string"
        },
        {
          "name": "migrationId",
          "type": "string"
        }
      ],
      "name": "isMigrated",
      "outputs": [
        {
          "name": "",
          "type": "bool"
        }
      ],
      "payable": false,
      "stateMutability": "view",
      "type": "function"
    },
    {
      "anonymous": false,
      "inputs": [
        {
          "indexed": false,
          "name": "contractName",
          "type": "string"
        },
        {
          "indexed": false,
          "name": "migrationId",
          "type": "string"
        }
      ],
      "name": "Migrated",
      "type": "event"
    },
    {
      "constant": false,
      "inputs": [],
      "name": "initialize",
      "outputs": [],
      "payable": false,
      "stateMutability": "nonpayable",
      "type": "function"
    },
    {
      "constant": false,
      "inputs": [
        {
          "name": "value",
          "type": "uint256"
        }
      ],
      "name": "initialize",
      "outputs": [],
      "payable": true,
      "stateMutability": "payable",
      "type": "function"
    },
    {
      "constant": true,
      "inputs": [],
      "name": "fail",
      "outputs": [],
      "payable": false,
      "stateMutability": "pure",
      "type": "function"
    },
    {
      "constant": false,
      "inputs": [],
      "name": "secondInitialize",
      "outputs": [],
      "payable": false,
      "stateMutability": "nonpayable",
      "type": "function"
    }
  ],
  "bytecode": "0x608060405234801561001057600080fd5b50610f8d806100206000396000f300608060405260043610610078576000357c0100000000000000000000000000000000000000000000000000000000900463ffffffff1680630c55699c1461007d5780637851e1f5146100a85780638129fc1c146100bf578063a9cc4718146100d6578063c0bac1a8146100ed578063fe4b84df146101b4575b600080fd5b34801561008957600080fd5b506100926101d4565b6040518082815260200191505060405180910390f35b3480156100b457600080fd5b506100bd6101da565b005b3480156100cb57600080fd5b506100d46105ab565b005b3480156100e257600080fd5b506100eb61097c565b005b3480156100f957600080fd5b5061019a600480360381019080803590602001908201803590602001908080601f0160208091040260200160405190810160405280939291908181526020018383808284378201915050505050509192919290803590602001908201803590602001908080601f01602080910402602001604051908101604052809392919081815260200183838082843782019150505050505091929192905050506109f4565b604051808215151515815260200191505060405180910390f35b6101d260048036038101908080359060200190929190505050610adf565b005b60015481565b6040805190810160405280600e81526020017f4d696772617461626c654d6f636b0000000000000000000000000000000000008152506040805190810160405280600181526020017f3100000000000000000000000000000000000000000000000000000000000000815250610285826040805190810160405280600b81526020017f696e697469616c697a6564000000000000000000000000000000000000000000815250610eb8565b61028f8282610eb8565b7fdd117a11c22118c9dee4b5a67ce578bc44529dce21ee0ccc439588fbb9fb4ea38282604051808060200180602001838103835285818151815260200191508051906020019080838360005b838110156102f65780820151818401526020810190506102db565b50505050905090810190601f1680156103235780820380516001836020036101000a031916815260200191505b50838103825284818151815260200191508051906020019080838360005b8381101561035c578082015181840152602081019050610341565b50505050905090810190601f1680156103895780820380516001836020036101000a031916815260200191505b5094505050505060405180910390a160016000836040518082805190602001908083835b6020831015156103d257805182526020820191506020810190506020830392506103ad565b6001836020036101000a0380198251168184511680821785525050505050509050019150509081526020016040518091039020826040518082805190602001908083835b60208310151561043b5780518252602082019150602081019050602083039250610416565b6001836020036101000a038019825116818451168082178552505050505050905001915050908152602001604051809103902060006101000a81548160ff02191690831515021790555060016000836040518082805190602001908083835b6020831015156104bf578051825260208201915060208101905060208303925061049a565b6001836020036101000a03801982511681845116808217855250505050505090500191505090815260200160405180910390206040805190810160405280600b81526020017f696e697469616c697a65640000000000000000000000000000000000000000008152506040518082805190602001908083835b60208310151561055d5780518252602082019150602081019050602083039250610538565b6001836020036101000a038019825116818451168082178552505050505050905001915050908152602001604051809103902060006101000a81548160ff0219169083151502179055505050565b6040805190810160405280600a81526020017f4d696772617461626c65000000000000000000000000000000000000000000008152506040805190810160405280600581526020017f312e322e31000000000000000000000000000000000000000000000000000000815250610656826040805190810160405280600b81526020017f696e697469616c697a6564000000000000000000000000000000000000000000815250610eb8565b6106608282610eb8565b7fdd117a11c22118c9dee4b5a67ce578bc44529dce21ee0ccc439588fbb9fb4ea38282604051808060200180602001838103835285818151815260200191508051906020019080838360005b838110156106c75780820151818401526020810190506106ac565b50505050905090810190601f1680156106f45780820380516001836020036101000a031916815260200191505b50838103825284818151815260200191508051906020019080838360005b8381101561072d578082015181840152602081019050610712565b50505050905090810190601f16801561075a5780820380516001836020036101000a031916815260200191505b5094505050505060405180910390a160016000836040518082805190602001908083835b6020831015156107a3578051825260208201915060208101905060208303925061077e565b6001836020036101000a0380198251168184511680821785525050505050509050019150509081526020016040518091039020826040518082805190602001908083835b60208310151561080c57805182526020820191506020810190506020830392506107e7565b6001836020036101000a038019825116818451168082178552505050505050905001915050908152602001604051809103902060006101000a81548160ff02191690831515021790555060016000836040518082805190602001908083835b602083101515610890578051825260208201915060208101905060208303925061086b565b6001836020036101000a03801982511681845116808217855250505050505090500191505090815260200160405180910390206040805190810160405280600b81526020017f696e697469616c697a65640000000000000000000000000000000000000000008152506040518082805190602001908083835b60208310151561092e5780518252602082019150602081019050602083039250610909565b6001836020036101000a038019825116818451168082178552505050505050905001915050908152602001604051809103902060006101000a81548160ff0219169083151502179055505050565b600015156109f2576040517f08c379a000000000000000000000000000000000000000000000000000000000815260040180806020018281038252601d8152602001807f4d696772617461626c654d6f636b20666f72636564206661696c75726500000081525060200191505060405180910390fd5b565b600080836040518082805190602001908083835b602083101515610a2d5780518252602082019150602081019050602083039250610a08565b6001836020036101000a0380198251168184511680821785525050505050509050019150509081526020016040518091039020826040518082805190602001908083835b602083101515610a965780518252602082019150602081019050602083039250610a71565b6001836020036101000a038019825116818451168082178552505050505050905001915050908152602001604051809103902060009054906101000a900460ff16905092915050565b6040805190810160405280600e81526020017f4d696772617461626c654d6f636b0000000000000000000000000000000000008152506040805190810160405280600181526020017f3000000000000000000000000000000000000000000000000000000000000000815250610b8a826040805190810160405280600b81526020017f696e697469616c697a6564000000000000000000000000000000000000000000815250610eb8565b610b948282610eb8565b826001819055507fdd117a11c22118c9dee4b5a67ce578bc44529dce21ee0ccc439588fbb9fb4ea38282604051808060200180602001838103835285818151815260200191508051906020019080838360005b83811015610c02578082015181840152602081019050610be7565b50505050905090810190601f168015610c2f5780820380516001836020036101000a031916815260200191505b50838103825284818151815260200191508051906020019080838360005b83811015610c68578082015181840152602081019050610c4d565b50505050905090810190601f168015610c955780820380516001836020036101000a031916815260200191505b5094505050505060405180910390a160016000836040518082805190602001908083835b602083101515610cde5780518252602082019150602081019050602083039250610cb9565b6001836020036101000a0380198251168184511680821785525050505050509050019150509081526020016040518091039020826040518082805190602001908083835b602083101515610d475780518252602082019150602081019050602083039250610d22565b6001836020036101000a038019825116818451168082178552505050505050905001915050908152602001604051809103902060006101000a81548160ff02191690831515021790555060016000836040518082805190602001908083835b602083101515610dcb5780518252602082019150602081019050602083039250610da6565b6001836020036101000a03801982511681845116808217855250505050505090500191505090815260200160405180910390206040805190810160405280600b81526020017f696e697469616c697a65640000000000000000000000000000000000000000008152506040518082805190602001908083835b602083101515610e695780518252602082019150602081019050602083039250610e44565b6001836020036101000a038019825116818451168082178552505050505050905001915050908152602001604051809103902060006101000a81548160ff021916908315150217905550505050565b610ec282826109f4565b151515610f5d576040517f08c379a00000000000000000000000000000000000000000000000000000000081526004018080602001828103825260328152602001807f52657175657374656420746172676574206d6967726174696f6e20494420686181526020017f7320616c7265616479206265656e2072756e000000000000000000000000000081525060400191505060405180910390fd5b50505600a165627a7a72305820831aecf36397beb311a7961ade6d3ead1f62ed164fb22b21f855014a9199f1f20029",
  "source": "pragma solidity ^0.4.24;\n\nimport \"../migrations/Migratable.sol\";\n\n/**\n * @title MigratableMock\n * @dev This contract is a mock to test upgradeability functionality\n */\ncontract MigratableMock is Migratable {\n  uint256 public x;\n\n  function initialize(uint256 value) public payable isInitializer(\"MigratableMock\", \"0\") {\n    x = value;\n  }\n\n  function fail() public pure {\n    require(false, \"MigratableMock forced failure\");\n  }\n\n  function secondInitialize() public isInitializer(\"MigratableMock\", \"1\") {\n  }\n}\n",
  "sourcePath": "/home/spalladino/Projects/zeppelinos/zos/packages/lib/contracts/mocks/MigratableMock.sol",
  "compiler": {
    "name": "solc",
    "version": "0.4.24+commit.e67f0147.Emscripten.clang"
  },
  "schemaVersion": "2.0.1",
  "updatedAt": "2018-08-03T22:08:41.286Z"
}