{
  "contractName": "SampleChildV4",
  "abi": [
    {
      "constant": true,
      "inputs": [],
      "name": "father",
      "outputs": [
        {
          "name": "",
          "type": "uint256"
        }
      ],
      "payable": false,
      "stateMutability": "view",
      "type": "function"
    },
    {
      "constant": true,
      "inputs": [],
      "name": "child",
      "outputs": [
        {
          "name": "",
          "type": "uint256"
        }
      ],
      "payable": false,
      "stateMutability": "view",
      "type": "function"
    },
    {
      "constant": false,
      "inputs": [
        {
          "name": "_mother",
          "type": "uint256"
        },
        {
          "name": "_gramps",
          "type": "uint256"
        },
        {
          "name": "_father",
          "type": "uint256"
        },
        {
          "name": "_child",
          "type": "uint256"
        }
      ],
      "name": "initialize",
      "outputs": [],
      "payable": false,
      "stateMutability": "nonpayable",
      "type": "function"
    },
    {
      "constant": false,
      "inputs": [],
      "name": "initialize",
      "outputs": [],
      "payable": false,
      "stateMutability": "nonpayable",
      "type": "function"
    },
    {
      "constant": true,
      "inputs": [
        {
          "name": "contractName",
          "type": "string"
        },
        {
          "name": "migrationId",
          "type": "string"
        }
      ],
      "name": "isMigrated",
      "outputs": [
        {
          "name": "",
          "type": "bool"
        }
      ],
      "payable": false,
      "stateMutability": "view",
      "type": "function"
    },
    {
      "constant": false,
      "inputs": [
        {
          "name": "_gramps",
          "type": "uint256"
        },
        {
          "name": "_father",
          "type": "uint256"
        }
      ],
      "name": "initialize",
      "outputs": [],
      "payable": false,
      "stateMutability": "nonpayable",
      "type": "function"
    },
    {
      "constant": true,
      "inputs": [],
      "name": "mother",
      "outputs": [
        {
          "name": "",
          "type": "uint256"
        }
      ],
      "payable": false,
      "stateMutability": "view",
      "type": "function"
    },
    {
      "constant": true,
      "inputs": [],
      "name": "gramps",
      "outputs": [
        {
          "name": "",
          "type": "uint256"
        }
      ],
      "payable": false,
      "stateMutability": "view",
      "type": "function"
    },
    {
      "constant": false,
      "inputs": [
        {
          "name": "value",
          "type": "uint256"
        }
      ],
      "name": "initialize",
      "outputs": [],
      "payable": false,
      "stateMutability": "nonpayable",
      "type": "function"
    },
    {
      "anonymous": false,
      "inputs": [
        {
          "indexed": false,
          "name": "contractName",
          "type": "string"
        },
        {
          "indexed": false,
          "name": "migrationId",
          "type": "string"
        }
      ],
      "name": "Migrated",
      "type": "event"
    },
    {
      "constant": false,
      "inputs": [
        {
          "name": "_gramps",
          "type": "uint256"
        },
        {
          "name": "_father",
          "type": "uint256"
        }
      ],
      "name": "migrate",
      "outputs": [],
      "payable": false,
      "stateMutability": "nonpayable",
      "type": "function"
    },
    {
      "constant": false,
      "inputs": [
        {
          "name": "value",
          "type": "uint256"
        }
      ],
      "name": "migrate",
      "outputs": [],
      "payable": false,
      "stateMutability": "nonpayable",
      "type": "function"
    },
    {
      "constant": false,
      "inputs": [
        {
          "name": "_gramps",
          "type": "uint256"
        },
        {
          "name": "_father",
          "type": "uint256"
        },
        {
          "name": "_child",
          "type": "uint256"
        }
      ],
      "name": "migrate",
      "outputs": [],
      "payable": false,
      "stateMutability": "nonpayable",
      "type": "function"
    }
  ],
  "bytecode": "0x608060405234801561001057600080fd5b506122d9806100206000396000f3006080604052600436106100ba576000357c0100000000000000000000000000000000000000000000000000000000900463ffffffff1680631c8aca3b146100bf578063237b5e96146100ea5780633e54bacb14610115578063454b06081461014c57806360a2da44146101795780638129fc1c146101c457806388c95018146101db578063c0bac1a81461021c578063e4a30116146102e3578063ed7dfee31461031a578063fa39851f14610345578063fe4b84df14610370575b600080fd5b3480156100cb57600080fd5b506100d461039d565b6040518082815260200191505060405180910390f35b3480156100f657600080fd5b506100ff6103a3565b6040518082815260200191505060405180910390f35b34801561012157600080fd5b5061014a60048036038101908080359060200190929190803590602001909291905050506103a9565b005b34801561015857600080fd5b5061017760048036038101908080359060200190929190505050610706565b005b34801561018557600080fd5b506101c260048036038101908080359060200190929190803590602001909291908035906020019092919080359060200190929190505050610a59565b005b3480156101d057600080fd5b506101d9610e48565b005b3480156101e757600080fd5b5061021a600480360381019080803590602001909291908035906020019092919080359060200190929190505050611219565b005b34801561022857600080fd5b506102c9600480360381019080803590602001908201803590602001908080601f0160208091040260200160405190810160405280939291908181526020018383808284378201915050505050509192919290803590602001908201803590602001908080601f0160208091040260200160405190810160405280939291908181526020018383808284378201915050505050509192919290505050611578565b604051808215151515815260200191505060405180910390f35b3480156102ef57600080fd5b506103186004803603810190808035906020019092919080359060200190929190505050611663565b005b34801561032657600080fd5b5061032f611a46565b6040518082815260200191505060405180910390f35b34801561035157600080fd5b5061035a611a4c565b6040518082815260200191505060405180910390f35b34801561037c57600080fd5b5061039b60048036038101908080359060200190929190505050611a52565b005b60035481565b60045481565b6040805190810160405280600681526020017f46617468657200000000000000000000000000000000000000000000000000008152506040805190810160405280600b81526020017f6d6967726174696f6e5f310000000000000000000000000000000000000000008152506040805190810160405280600b81526020017f6d6967726174696f6e5f320000000000000000000000000000000000000000008152506104558383611578565b15156104ef576040517f08c379a000000000000000000000000000000000000000000000000000000000815260040180806020018281038252602e8152602001807f507265726571756973697465206d6967726174696f6e20494420686173206e6f81526020017f74206265656e2072756e2079657400000000000000000000000000000000000081525060400191505060405180910390fd5b6104f98382611e2b565b61050285610706565b836003819055507fdd117a11c22118c9dee4b5a67ce578bc44529dce21ee0ccc439588fbb9fb4ea38382604051808060200180602001838103835285818151815260200191508051906020019080838360005b83811015610570578082015181840152602081019050610555565b50505050905090810190601f16801561059d5780820380516001836020036101000a031916815260200191505b50838103825284818151815260200191508051906020019080838360005b838110156105d65780820151818401526020810190506105bb565b50505050905090810190601f1680156106035780820380516001836020036101000a031916815260200191505b5094505050505060405180910390a160016000846040518082805190602001908083835b60208310151561064c5780518252602082019150602081019050602083039250610627565b6001836020036101000a0380198251168184511680821785525050505050509050019150509081526020016040518091039020826040518082805190602001908083835b6020831015156106b55780518252602082019150602081019050602083039250610690565b6001836020036101000a038019825116818451168082178552505050505050905001915050908152602001604051809103902060006101000a81548160ff0219169083151502179055505050505050565b6040805190810160405280600681526020017f4772616d707300000000000000000000000000000000000000000000000000008152506040805190810160405280600b81526020017f6d6967726174696f6e5f310000000000000000000000000000000000000000008152506040805190810160405280600b81526020017f6d6967726174696f6e5f320000000000000000000000000000000000000000008152506107b28383611578565b151561084c576040517f08c379a000000000000000000000000000000000000000000000000000000000815260040180806020018281038252602e8152602001807f507265726571756973697465206d6967726174696f6e20494420686173206e6f81526020017f74206265656e2072756e2079657400000000000000000000000000000000000081525060400191505060405180910390fd5b6108568382611e2b565b836002819055507fdd117a11c22118c9dee4b5a67ce578bc44529dce21ee0ccc439588fbb9fb4ea38382604051808060200180602001838103835285818151815260200191508051906020019080838360005b838110156108c45780820151818401526020810190506108a9565b50505050905090810190601f1680156108f15780820380516001836020036101000a031916815260200191505b50838103825284818151815260200191508051906020019080838360005b8381101561092a57808201518184015260208101905061090f565b50505050905090810190601f1680156109575780820380516001836020036101000a031916815260200191505b5094505050505060405180910390a160016000846040518082805190602001908083835b6020831015156109a0578051825260208201915060208101905060208303925061097b565b6001836020036101000a0380198251168184511680821785525050505050509050019150509081526020016040518091039020826040518082805190602001908083835b602083101515610a0957805182526020820191506020810190506020830392506109e4565b6001836020036101000a038019825116818451168082178552505050505050905001915050908152602001604051809103902060006101000a81548160ff02191690831515021790555050505050565b6040805190810160405280600581526020017f4368696c640000000000000000000000000000000000000000000000000000008152506040805190810160405280600b81526020017f6d6967726174696f6e5f31000000000000000000000000000000000000000000815250610b04826040805190810160405280600b81526020017f696e697469616c697a6564000000000000000000000000000000000000000000815250611e2b565b610b0e8282611e2b565b610b1786611ed4565b610b218585611663565b826004819055507fdd117a11c22118c9dee4b5a67ce578bc44529dce21ee0ccc439588fbb9fb4ea38282604051808060200180602001838103835285818151815260200191508051906020019080838360005b83811015610b8f578082015181840152602081019050610b74565b50505050905090810190601f168015610bbc5780820380516001836020036101000a031916815260200191505b50838103825284818151815260200191508051906020019080838360005b83811015610bf5578082015181840152602081019050610bda565b50505050905090810190601f168015610c225780820380516001836020036101000a031916815260200191505b5094505050505060405180910390a160016000836040518082805190602001908083835b602083101515610c6b5780518252602082019150602081019050602083039250610c46565b6001836020036101000a0380198251168184511680821785525050505050509050019150509081526020016040518091039020826040518082805190602001908083835b602083101515610cd45780518252602082019150602081019050602083039250610caf565b6001836020036101000a038019825116818451168082178552505050505050905001915050908152602001604051809103902060006101000a81548160ff02191690831515021790555060016000836040518082805190602001908083835b602083101515610d585780518252602082019150602081019050602083039250610d33565b6001836020036101000a03801982511681845116808217855250505050505090500191505090815260200160405180910390206040805190810160405280600b81526020017f696e697469616c697a65640000000000000000000000000000000000000000008152506040518082805190602001908083835b602083101515610df65780518252602082019150602081019050602083039250610dd1565b6001836020036101000a038019825116818451168082178552505050505050905001915050908152602001604051809103902060006101000a81548160ff021916908315150217905550505050505050565b6040805190810160405280600a81526020017f4d696772617461626c65000000000000000000000000000000000000000000008152506040805190810160405280600581526020017f312e322e31000000000000000000000000000000000000000000000000000000815250610ef3826040805190810160405280600b81526020017f696e697469616c697a6564000000000000000000000000000000000000000000815250611e2b565b610efd8282611e2b565b7fdd117a11c22118c9dee4b5a67ce578bc44529dce21ee0ccc439588fbb9fb4ea38282604051808060200180602001838103835285818151815260200191508051906020019080838360005b83811015610f64578082015181840152602081019050610f49565b50505050905090810190601f168015610f915780820380516001836020036101000a031916815260200191505b50838103825284818151815260200191508051906020019080838360005b83811015610fca578082015181840152602081019050610faf565b50505050905090810190601f168015610ff75780820380516001836020036101000a031916815260200191505b5094505050505060405180910390a160016000836040518082805190602001908083835b602083101515611040578051825260208201915060208101905060208303925061101b565b6001836020036101000a0380198251168184511680821785525050505050509050019150509081526020016040518091039020826040518082805190602001908083835b6020831015156110a95780518252602082019150602081019050602083039250611084565b6001836020036101000a038019825116818451168082178552505050505050905001915050908152602001604051809103902060006101000a81548160ff02191690831515021790555060016000836040518082805190602001908083835b60208310151561112d5780518252602082019150602081019050602083039250611108565b6001836020036101000a03801982511681845116808217855250505050505090500191505090815260200160405180910390206040805190810160405280600b81526020017f696e697469616c697a65640000000000000000000000000000000000000000008152506040518082805190602001908083835b6020831015156111cb57805182526020820191506020810190506020830392506111a6565b6001836020036101000a038019825116818451168082178552505050505050905001915050908152602001604051809103902060006101000a81548160ff0219169083151502179055505050565b6040805190810160405280600581526020017f4368696c640000000000000000000000000000000000000000000000000000008152506040805190810160405280600b81526020017f6d6967726174696f6e5f330000000000000000000000000000000000000000008152506040805190810160405280600b81526020017f6d6967726174696f6e5f340000000000000000000000000000000000000000008152506112c58383611578565b151561135f576040517f08c379a000000000000000000000000000000000000000000000000000000000815260040180806020018281038252602e8152602001807f507265726571756973697465206d6967726174696f6e20494420686173206e6f81526020017f74206265656e2072756e2079657400000000000000000000000000000000000081525060400191505060405180910390fd5b6113698382611e2b565b61137386866103a9565b836004819055507fdd117a11c22118c9dee4b5a67ce578bc44529dce21ee0ccc439588fbb9fb4ea38382604051808060200180602001838103835285818151815260200191508051906020019080838360005b838110156113e15780820151818401526020810190506113c6565b50505050905090810190601f16801561140e5780820380516001836020036101000a031916815260200191505b50838103825284818151815260200191508051906020019080838360005b8381101561144757808201518184015260208101905061142c565b50505050905090810190601f1680156114745780820380516001836020036101000a031916815260200191505b5094505050505060405180910390a160016000846040518082805190602001908083835b6020831015156114bd5780518252602082019150602081019050602083039250611498565b6001836020036101000a0380198251168184511680821785525050505050509050019150509081526020016040518091039020826040518082805190602001908083835b6020831015156115265780518252602082019150602081019050602083039250611501565b6001836020036101000a038019825116818451168082178552505050505050905001915050908152602001604051809103902060006101000a81548160ff021916908315150217905550505050505050565b600080836040518082805190602001908083835b6020831015156115b1578051825260208201915060208101905060208303925061158c565b6001836020036101000a0380198251168184511680821785525050505050509050019150509081526020016040518091039020826040518082805190602001908083835b60208310151561161a57805182526020820191506020810190506020830392506115f5565b6001836020036101000a038019825116818451168082178552505050505050905001915050908152602001604051809103902060009054906101000a900460ff16905092915050565b6040805190810160405280600681526020017f46617468657200000000000000000000000000000000000000000000000000008152506040805190810160405280600b81526020017f6d6967726174696f6e5f3100000000000000000000000000000000000000000081525061170e826040805190810160405280600b81526020017f696e697469616c697a6564000000000000000000000000000000000000000000815250611e2b565b6117188282611e2b565b61172184611a52565b826003819055507fdd117a11c22118c9dee4b5a67ce578bc44529dce21ee0ccc439588fbb9fb4ea38282604051808060200180602001838103835285818151815260200191508051906020019080838360005b8381101561178f578082015181840152602081019050611774565b50505050905090810190601f1680156117bc5780820380516001836020036101000a031916815260200191505b50838103825284818151815260200191508051906020019080838360005b838110156117f55780820151818401526020810190506117da565b50505050905090810190601f1680156118225780820380516001836020036101000a031916815260200191505b5094505050505060405180910390a160016000836040518082805190602001908083835b60208310151561186b5780518252602082019150602081019050602083039250611846565b6001836020036101000a0380198251168184511680821785525050505050509050019150509081526020016040518091039020826040518082805190602001908083835b6020831015156118d457805182526020820191506020810190506020830392506118af565b6001836020036101000a038019825116818451168082178552505050505050905001915050908152602001604051809103902060006101000a81548160ff02191690831515021790555060016000836040518082805190602001908083835b6020831015156119585780518252602082019150602081019050602083039250611933565b6001836020036101000a03801982511681845116808217855250505050505090500191505090815260200160405180910390206040805190810160405280600b81526020017f696e697469616c697a65640000000000000000000000000000000000000000008152506040518082805190602001908083835b6020831015156119f657805182526020820191506020810190506020830392506119d1565b6001836020036101000a038019825116818451168082178552505050505050905001915050908152602001604051809103902060006101000a81548160ff02191690831515021790555050505050565b60015481565b60025481565b6040805190810160405280600681526020017f4772616d707300000000000000000000000000000000000000000000000000008152506040805190810160405280600b81526020017f6d6967726174696f6e5f31000000000000000000000000000000000000000000815250611afd826040805190810160405280600b81526020017f696e697469616c697a6564000000000000000000000000000000000000000000815250611e2b565b611b078282611e2b565b826002819055507fdd117a11c22118c9dee4b5a67ce578bc44529dce21ee0ccc439588fbb9fb4ea38282604051808060200180602001838103835285818151815260200191508051906020019080838360005b83811015611b75578082015181840152602081019050611b5a565b50505050905090810190601f168015611ba25780820380516001836020036101000a031916815260200191505b50838103825284818151815260200191508051906020019080838360005b83811015611bdb578082015181840152602081019050611bc0565b50505050905090810190601f168015611c085780820380516001836020036101000a031916815260200191505b5094505050505060405180910390a160016000836040518082805190602001908083835b602083101515611c515780518252602082019150602081019050602083039250611c2c565b6001836020036101000a0380198251168184511680821785525050505050509050019150509081526020016040518091039020826040518082805190602001908083835b602083101515611cba5780518252602082019150602081019050602083039250611c95565b6001836020036101000a038019825116818451168082178552505050505050905001915050908152602001604051809103902060006101000a81548160ff02191690831515021790555060016000836040518082805190602001908083835b602083101515611d3e5780518252602082019150602081019050602083039250611d19565b6001836020036101000a03801982511681845116808217855250505050505090500191505090815260200160405180910390206040805190810160405280600b81526020017f696e697469616c697a65640000000000000000000000000000000000000000008152506040518082805190602001908083835b602083101515611ddc5780518252602082019150602081019050602083039250611db7565b6001836020036101000a038019825116818451168082178552505050505050905001915050908152602001604051809103902060006101000a81548160ff021916908315150217905550505050565b611e358282611578565b151515611ed0576040517f08c379a00000000000000000000000000000000000000000000000000000000081526004018080602001828103825260328152602001807f52657175657374656420746172676574206d6967726174696f6e20494420686181526020017f7320616c7265616479206265656e2072756e000000000000000000000000000081525060400191505060405180910390fd5b5050565b6040805190810160405280600681526020017f4d6f7468657200000000000000000000000000000000000000000000000000008152506040805190810160405280600b81526020017f6d6967726174696f6e5f31000000000000000000000000000000000000000000815250611f7f826040805190810160405280600b81526020017f696e697469616c697a6564000000000000000000000000000000000000000000815250611e2b565b611f898282611e2b565b826001819055507fdd117a11c22118c9dee4b5a67ce578bc44529dce21ee0ccc439588fbb9fb4ea38282604051808060200180602001838103835285818151815260200191508051906020019080838360005b83811015611ff7578082015181840152602081019050611fdc565b50505050905090810190601f1680156120245780820380516001836020036101000a031916815260200191505b50838103825284818151815260200191508051906020019080838360005b8381101561205d578082015181840152602081019050612042565b50505050905090810190601f16801561208a5780820380516001836020036101000a031916815260200191505b5094505050505060405180910390a160016000836040518082805190602001908083835b6020831015156120d357805182526020820191506020810190506020830392506120ae565b6001836020036101000a0380198251168184511680821785525050505050509050019150509081526020016040518091039020826040518082805190602001908083835b60208310151561213c5780518252602082019150602081019050602083039250612117565b6001836020036101000a038019825116818451168082178552505050505050905001915050908152602001604051809103902060006101000a81548160ff02191690831515021790555060016000836040518082805190602001908083835b6020831015156121c0578051825260208201915060208101905060208303925061219b565b6001836020036101000a03801982511681845116808217855250505050505090500191505090815260200160405180910390206040805190810160405280600b81526020017f696e697469616c697a65640000000000000000000000000000000000000000008152506040518082805190602001908083835b60208310151561225e5780518252602082019150602081019050602083039250612239565b6001836020036101000a038019825116818451168082178552505050505050905001915050908152602001604051809103902060006101000a81548160ff0219169083151502179055505050505600a165627a7a72305820a74d27dd244dabe6585aabe57b73bddd41d752be495553611a85f433f7996eb40029",
  "source": "pragma solidity ^0.4.24;\n\nimport '../migrations/Migratable.sol';\n\n// Sample contracts showing upgradeability and migrations with multiple inheritance\n// Child contract inherits from Father and Mother contracts, and Father extends from Gramps\n// \n//              Gramps\n//                |\n//    Mother    Father\n//      |         |\n//      -- Child --\n//\n\n/**\n * Sample base migratable contract that defines a field mother\n */\ncontract SampleMotherV1 is Migratable {\n  uint256 public mother;\n\n  function initialize(uint256 value) isInitializer(\"Mother\", \"migration_1\") public {\n    mother = value;\n  }\n}\n\n/**\n * V2 for base mother contract\n */\ncontract SampleMotherV2 is SampleMotherV1 {\n  function migrate(uint256 value) isMigration(\"Mother\", \"migration_1\", \"migration_2\") public {\n    mother = value;\n  }\n}\n\n/**\n * Sample base migratable contract that defines a field gramps\n */\ncontract SampleGrampsV1 is Migratable {\n  uint256 public gramps;\n\n  function initialize(uint256 value) isInitializer(\"Gramps\", \"migration_1\") public {\n    gramps = value;\n  }\n}\n\n/**\n * V2 for base gramps contract\n */\ncontract SampleGrampsV2 is SampleGrampsV1 {\n  function migrate(uint256 value) isMigration(\"Gramps\", \"migration_1\", \"migration_2\") public {\n    gramps = value;\n  }\n}\n\n/**\n * Sample base migratable contract that defines a field father and extends from gramps\n */\ncontract SampleFatherV1 is SampleGrampsV1 {\n  uint256 public father;\n\n  function initialize(uint256 _gramps, uint256 _father) isInitializer(\"Father\", \"migration_1\") public {\n    SampleGrampsV1.initialize(_gramps);\n    father = _father;\n  }\n}\n\n/**\n * V2 for base father contract, which extends from grampsV2\n */\ncontract SampleFatherV2 is SampleFatherV1, SampleGrampsV2 {\n  function migrate(uint256 _gramps, uint256 _father) isMigration(\"Father\", \"migration_1\", \"migration_2\") public {\n    SampleGrampsV2.migrate(_gramps);\n    father = _father;\n  }\n}\n\n/**\n * ChildV1 extends from motherV1, fatherV1 (grampsV1)\n */\ncontract SampleChildV1 is Migratable, SampleMotherV1, SampleFatherV1 {\n  uint256 public child;\n\n  function initialize(uint256 _mother, uint256 _gramps, uint256 _father, uint256 _child) isInitializer(\"Child\", \"migration_1\") public {\n    SampleMotherV1.initialize(_mother);\n    SampleFatherV1.initialize(_gramps, _father);\n    child = _child;\n  }\n}\n\n/**\n * ChildV2 extends from motherV1, fatherV1 (grampsV1)\n */\ncontract SampleChildV2 is SampleChildV1 {\n  function migrate(uint256 _child) isMigration(\"Child\", \"migration_1\", \"migration_2\") public {\n    child = _child;\n  }\n}\n\n/**\n * ChildV3 extends from motherV2, fatherV1 (grampsV1)\n */\ncontract SampleChildV3 is SampleChildV2, SampleMotherV2  {\n  function migrate(uint256 _mother, uint256 _child) isMigration(\"Child\", \"migration_2\", \"migration_3\") public {\n    SampleMotherV2.migrate(_mother);\n    child = _child;\n  }\n}\n\n/**\n * ChildV4 extends from motherV2, fatherV2 (grampsV2)\n */\ncontract SampleChildV4 is SampleChildV3, SampleFatherV2  {\n  function migrate(uint256 _gramps, uint256 _father, uint256 _child) isMigration(\"Child\", \"migration_3\", \"migration_4\") public {\n    SampleFatherV2.migrate(_gramps, _father);\n    child = _child;\n  }\n}\n\n/**\n * ChildV5 extends from motherV2, fatherV2 (grampsV2), has the same signature in migrate than V1, and allows to be initialized directly as well or from V3\n */\ncontract SampleChildV5 is SampleChildV4 {\n  function initialize(uint256 _mother, uint256 _gramps, uint256 _father, uint256 _child) isInitializer(\"Child\", \"migration_5\") public {\n    SampleMotherV1.initialize(_mother);\n    SampleMotherV2.migrate(_mother);\n    SampleFatherV1.initialize(_gramps, _father);\n    SampleFatherV2.migrate(_gramps, _father);\n    child = _child;\n  }\n\n  function migrateFromV3(uint256 _gramps, uint256 _father, uint256 _child) isMigration(\"Child\", \"migration_3\", \"migration_5\") public {\n    SampleChildV4.migrate(_gramps, _father, _child);\n  }\n\n  function migrate(uint256 _child) isMigration(\"Child\", \"migration_4\", \"migration_5\") public {\n    child = _child;\n  }\n}\n",
  "sourcePath": "/home/spalladino/Projects/zeppelinos/zos/packages/lib/contracts/mocks/MultipleInheritanceMigratableMocks.sol",
  "compiler": {
    "name": "solc",
    "version": "0.4.24+commit.e67f0147.Emscripten.clang"
  },
  "schemaVersion": "2.0.1",
  "updatedAt": "2018-08-03T22:08:41.288Z"
}